{
  "_format": "hh3-artifact-1",
  "contractName": "Escrow",
  "sourceName": "contracts/Escrow.sol",
  "abi": [
    {
      "inputs": [],
      "stateMutability": "nonpayable",
      "type": "constructor"
    },
    {
      "inputs": [
        {
          "internalType": "string",
          "name": "fieldName",
          "type": "string"
        }
      ],
      "name": "EmptyString",
      "type": "error"
    },
    {
      "inputs": [
        {
          "internalType": "uint256",
          "name": "escrowId",
          "type": "uint256"
        }
      ],
      "name": "EscrowNotFound",
      "type": "error"
    },
    {
      "inputs": [
        {
          "internalType": "uint256",
          "name": "escrowId",
          "type": "uint256"
        }
      ],
      "name": "FundingWindowClosed",
      "type": "error"
    },
    {
      "inputs": [],
      "name": "InvalidAmount",
      "type": "error"
    },
    {
      "inputs": [],
      "name": "InvalidInitialization",
      "type": "error"
    },
    {
      "inputs": [
        {
          "internalType": "uint256",
          "name": "milestoneId",
          "type": "uint256"
        },
        {
          "internalType": "enum MilestoneStatus",
          "name": "currentStatus",
          "type": "uint8"
        },
        {
          "internalType": "enum MilestoneStatus",
          "name": "expectedStatus",
          "type": "uint8"
        }
      ],
      "name": "InvalidMilestoneStatus",
      "type": "error"
    },
    {
      "inputs": [
        {
          "internalType": "uint256",
          "name": "expected",
          "type": "uint256"
        },
        {
          "internalType": "uint256",
          "name": "actual",
          "type": "uint256"
        }
      ],
      "name": "InvalidResolutionSplit",
      "type": "error"
    },
    {
      "inputs": [
        {
          "internalType": "enum ResolverType",
          "name": "resolverType",
          "type": "uint8"
        }
      ],
      "name": "InvalidResolverType",
      "type": "error"
    },
    {
      "inputs": [],
      "name": "InvalidStatusTransition",
      "type": "error"
    },
    {
      "inputs": [
        {
          "internalType": "string",
          "name": "fieldName",
          "type": "string"
        }
      ],
      "name": "InvalidTime",
      "type": "error"
    },
    {
      "inputs": [
        {
          "internalType": "uint256",
          "name": "expected",
          "type": "uint256"
        },
        {
          "internalType": "uint256",
          "name": "actual",
          "type": "uint256"
        }
      ],
      "name": "MilestoneAmountMismatch",
      "type": "error"
    },
    {
      "inputs": [
        {
          "internalType": "uint256",
          "name": "milestoneId",
          "type": "uint256"
        }
      ],
      "name": "MilestoneNotFound",
      "type": "error"
    },
    {
      "inputs": [],
      "name": "NotInitializing",
      "type": "error"
    },
    {
      "inputs": [
        {
          "internalType": "address",
          "name": "owner",
          "type": "address"
        }
      ],
      "name": "OwnableInvalidOwner",
      "type": "error"
    },
    {
      "inputs": [
        {
          "internalType": "address",
          "name": "account",
          "type": "address"
        }
      ],
      "name": "OwnableUnauthorizedAccount",
      "type": "error"
    },
    {
      "inputs": [],
      "name": "ReentrancyGuardReentrantCall",
      "type": "error"
    },
    {
      "inputs": [
        {
          "internalType": "enum ResolverType",
          "name": "resolverType",
          "type": "uint8"
        }
      ],
      "name": "ResolverNotConfigured",
      "type": "error"
    },
    {
      "inputs": [
        {
          "internalType": "address",
          "name": "token",
          "type": "address"
        }
      ],
      "name": "SafeERC20FailedOperation",
      "type": "error"
    },
    {
      "inputs": [
        {
          "internalType": "address",
          "name": "caller",
          "type": "address"
        }
      ],
      "name": "Unauthorized",
      "type": "error"
    },
    {
      "inputs": [
        {
          "internalType": "string",
          "name": "fieldName",
          "type": "string"
        }
      ],
      "name": "ZeroAddress",
      "type": "error"
    },
    {
      "anonymous": false,
      "inputs": [
        {
          "indexed": true,
          "internalType": "uint256",
          "name": "milestoneId",
          "type": "uint256"
        },
        {
          "indexed": true,
          "internalType": "uint256",
          "name": "escrowId",
          "type": "uint256"
        },
        {
          "indexed": true,
          "internalType": "address",
          "name": "raiser",
          "type": "address"
        },
        {
          "indexed": false,
          "internalType": "string",
          "name": "reason",
          "type": "string"
        }
      ],
      "name": "DisputeOpened",
      "type": "event"
    },
    {
      "anonymous": false,
      "inputs": [
        {
          "indexed": true,
          "internalType": "uint256",
          "name": "milestoneId",
          "type": "uint256"
        },
        {
          "indexed": true,
          "internalType": "uint256",
          "name": "escrowId",
          "type": "uint256"
        },
        {
          "indexed": true,
          "internalType": "address",
          "name": "resolver",
          "type": "address"
        },
        {
          "indexed": false,
          "internalType": "uint256",
          "name": "recipientAmount",
          "type": "uint256"
        },
        {
          "indexed": false,
          "internalType": "uint256",
          "name": "clientRefundAmount",
          "type": "uint256"
        },
        {
          "indexed": false,
          "internalType": "string",
          "name": "resolutionDetails",
          "type": "string"
        }
      ],
      "name": "DisputeResolved",
      "type": "event"
    },
    {
      "anonymous": false,
      "inputs": [
        {
          "indexed": true,
          "internalType": "uint256",
          "name": "escrowId",
          "type": "uint256"
        },
        {
          "indexed": true,
          "internalType": "address",
          "name": "caller",
          "type": "address"
        }
      ],
      "name": "EscrowCancelled",
      "type": "event"
    },
    {
      "anonymous": false,
      "inputs": [
        {
          "indexed": true,
          "internalType": "uint256",
          "name": "escrowId",
          "type": "uint256"
        },
        {
          "indexed": true,
          "internalType": "address",
          "name": "caller",
          "type": "address"
        }
      ],
      "name": "EscrowCompleted",
      "type": "event"
    },
    {
      "anonymous": false,
      "inputs": [
        {
          "indexed": true,
          "internalType": "uint256",
          "name": "escrowId",
          "type": "uint256"
        },
        {
          "indexed": true,
          "internalType": "address",
          "name": "client",
          "type": "address"
        },
        {
          "indexed": true,
          "internalType": "address",
          "name": "recipient",
          "type": "address"
        },
        {
          "indexed": false,
          "internalType": "address",
          "name": "token",
          "type": "address"
        },
        {
          "indexed": false,
          "internalType": "uint256",
          "name": "totalAmount",
          "type": "uint256"
        },
        {
          "indexed": false,
          "internalType": "uint64",
          "name": "fundingDeadline",
          "type": "uint64"
        },
        {
          "indexed": false,
          "internalType": "enum ResolverType",
          "name": "resolverType",
          "type": "uint8"
        }
      ],
      "name": "EscrowCreated",
      "type": "event"
    },
    {
      "anonymous": false,
      "inputs": [
        {
          "indexed": true,
          "internalType": "uint256",
          "name": "escrowId",
          "type": "uint256"
        },
        {
          "indexed": true,
          "internalType": "address",
          "name": "client",
          "type": "address"
        },
        {
          "indexed": false,
          "internalType": "uint256",
          "name": "amount",
          "type": "uint256"
        }
      ],
      "name": "EscrowFunded",
      "type": "event"
    },
    {
      "anonymous": false,
      "inputs": [
        {
          "indexed": true,
          "internalType": "uint256",
          "name": "escrowId",
          "type": "uint256"
        },
        {
          "indexed": false,
          "internalType": "enum EscrowStatus",
          "name": "oldStatus",
          "type": "uint8"
        },
        {
          "indexed": false,
          "internalType": "enum EscrowStatus",
          "name": "newStatus",
          "type": "uint8"
        }
      ],
      "name": "EscrowStatusChanged",
      "type": "event"
    },
    {
      "anonymous": false,
      "inputs": [
        {
          "indexed": true,
          "internalType": "uint256",
          "name": "milestoneId",
          "type": "uint256"
        },
        {
          "indexed": true,
          "internalType": "uint256",
          "name": "escrowId",
          "type": "uint256"
        },
        {
          "indexed": true,
          "internalType": "address",
          "name": "client",
          "type": "address"
        },
        {
          "indexed": false,
          "internalType": "uint256",
          "name": "amount",
          "type": "uint256"
        }
      ],
      "name": "FundsRefunded",
      "type": "event"
    },
    {
      "anonymous": false,
      "inputs": [
        {
          "indexed": true,
          "internalType": "uint256",
          "name": "milestoneId",
          "type": "uint256"
        },
        {
          "indexed": true,
          "internalType": "uint256",
          "name": "escrowId",
          "type": "uint256"
        },
        {
          "indexed": true,
          "internalType": "address",
          "name": "recipient",
          "type": "address"
        },
        {
          "indexed": false,
          "internalType": "uint256",
          "name": "amount",
          "type": "uint256"
        }
      ],
      "name": "FundsReleased",
      "type": "event"
    },
    {
      "anonymous": false,
      "inputs": [
        {
          "indexed": false,
          "internalType": "uint64",
          "name": "version",
          "type": "uint64"
        }
      ],
      "name": "Initialized",
      "type": "event"
    },
    {
      "anonymous": false,
      "inputs": [
        {
          "indexed": true,
          "internalType": "uint256",
          "name": "milestoneId",
          "type": "uint256"
        },
        {
          "indexed": true,
          "internalType": "uint256",
          "name": "escrowId",
          "type": "uint256"
        },
        {
          "indexed": true,
          "internalType": "address",
          "name": "approver",
          "type": "address"
        }
      ],
      "name": "MilestoneApproved",
      "type": "event"
    },
    {
      "anonymous": false,
      "inputs": [
        {
          "indexed": true,
          "internalType": "uint256",
          "name": "milestoneId",
          "type": "uint256"
        },
        {
          "indexed": true,
          "internalType": "uint256",
          "name": "escrowId",
          "type": "uint256"
        },
        {
          "indexed": false,
          "internalType": "uint256",
          "name": "amount",
          "type": "uint256"
        },
        {
          "indexed": false,
          "internalType": "uint64",
          "name": "dueDate",
          "type": "uint64"
        },
        {
          "indexed": false,
          "internalType": "enum MilestoneReleaseRule",
          "name": "releaseRule",
          "type": "uint8"
        },
        {
          "indexed": false,
          "internalType": "string",
          "name": "title",
          "type": "string"
        }
      ],
      "name": "MilestoneCreated",
      "type": "event"
    },
    {
      "anonymous": false,
      "inputs": [
        {
          "indexed": true,
          "internalType": "uint256",
          "name": "milestoneId",
          "type": "uint256"
        },
        {
          "indexed": true,
          "internalType": "uint256",
          "name": "escrowId",
          "type": "uint256"
        },
        {
          "indexed": true,
          "internalType": "address",
          "name": "approver",
          "type": "address"
        }
      ],
      "name": "MilestoneRefundApproved",
      "type": "event"
    },
    {
      "anonymous": false,
      "inputs": [
        {
          "indexed": true,
          "internalType": "uint256",
          "name": "milestoneId",
          "type": "uint256"
        },
        {
          "indexed": true,
          "internalType": "uint256",
          "name": "escrowId",
          "type": "uint256"
        },
        {
          "indexed": false,
          "internalType": "enum MilestoneStatus",
          "name": "oldStatus",
          "type": "uint8"
        },
        {
          "indexed": false,
          "internalType": "enum MilestoneStatus",
          "name": "newStatus",
          "type": "uint8"
        }
      ],
      "name": "MilestoneStatusChanged",
      "type": "event"
    },
    {
      "anonymous": false,
      "inputs": [
        {
          "indexed": true,
          "internalType": "uint256",
          "name": "milestoneId",
          "type": "uint256"
        },
        {
          "indexed": true,
          "internalType": "uint256",
          "name": "escrowId",
          "type": "uint256"
        },
        {
          "indexed": true,
          "internalType": "address",
          "name": "submitter",
          "type": "address"
        },
        {
          "indexed": false,
          "internalType": "uint64",
          "name": "reviewDeadline",
          "type": "uint64"
        }
      ],
      "name": "MilestoneSubmitted",
      "type": "event"
    },
    {
      "anonymous": false,
      "inputs": [
        {
          "indexed": true,
          "internalType": "address",
          "name": "previousOwner",
          "type": "address"
        },
        {
          "indexed": true,
          "internalType": "address",
          "name": "newOwner",
          "type": "address"
        }
      ],
      "name": "OwnershipTransferred",
      "type": "event"
    },
    {
      "anonymous": false,
      "inputs": [
        {
          "indexed": true,
          "internalType": "enum ResolverType",
          "name": "resolverType",
          "type": "uint8"
        },
        {
          "indexed": true,
          "internalType": "address",
          "name": "resolver",
          "type": "address"
        },
        {
          "indexed": false,
          "internalType": "uint16",
          "name": "feeBps",
          "type": "uint16"
        },
        {
          "indexed": false,
          "internalType": "string",
          "name": "label",
          "type": "string"
        },
        {
          "indexed": false,
          "internalType": "bool",
          "name": "active",
          "type": "bool"
        }
      ],
      "name": "ResolverConfigured",
      "type": "event"
    },
    {
      "stateMutability": "payable",
      "type": "fallback"
    },
    {
      "inputs": [],
      "name": "DEFAULT_REVIEW_TIMEOUT",
      "outputs": [
        {
          "internalType": "uint64",
          "name": "",
          "type": "uint64"
        }
      ],
      "stateMutability": "view",
      "type": "function"
    },
    {
      "inputs": [],
      "name": "MAX_BPS",
      "outputs": [
        {
          "internalType": "uint16",
          "name": "",
          "type": "uint16"
        }
      ],
      "stateMutability": "view",
      "type": "function"
    },
    {
      "inputs": [
        {
          "internalType": "uint256",
          "name": "milestoneId",
          "type": "uint256"
        }
      ],
      "name": "approveMilestone",
      "outputs": [],
      "stateMutability": "nonpayable",
      "type": "function"
    },
    {
      "inputs": [
        {
          "internalType": "uint256",
          "name": "milestoneId",
          "type": "uint256"
        }
      ],
      "name": "approveRefund",
      "outputs": [],
      "stateMutability": "nonpayable",
      "type": "function"
    },
    {
      "inputs": [
        {
          "internalType": "uint256",
          "name": "escrowId",
          "type": "uint256"
        }
      ],
      "name": "cancelEscrow",
      "outputs": [],
      "stateMutability": "nonpayable",
      "type": "function"
    },
    {
      "inputs": [
        {
          "components": [
            {
              "internalType": "string",
              "name": "title",
              "type": "string"
            },
            {
              "internalType": "string",
              "name": "description",
              "type": "string"
            },
            {
              "internalType": "string",
              "name": "clientName",
              "type": "string"
            },
            {
              "internalType": "string",
              "name": "recipientName",
              "type": "string"
            },
            {
              "internalType": "address",
              "name": "recipient",
              "type": "address"
            },
            {
              "internalType": "address",
              "name": "token",
              "type": "address"
            },
            {
              "internalType": "uint256",
              "name": "totalAmount",
              "type": "uint256"
            },
            {
              "internalType": "uint64",
              "name": "fundingDeadline",
              "type": "uint64"
            },
            {
              "internalType": "enum GlobalReleaseRule",
              "name": "defaultReleaseRule",
              "type": "uint8"
            },
            {
              "internalType": "enum RefundPolicy",
              "name": "refundPolicy",
              "type": "uint8"
            },
            {
              "internalType": "enum ResolverType",
              "name": "resolverType",
              "type": "uint8"
            }
          ],
          "internalType": "struct CreateEscrowInput",
          "name": "input",
          "type": "tuple"
        },
        {
          "components": [
            {
              "internalType": "string",
              "name": "title",
              "type": "string"
            },
            {
              "internalType": "string",
              "name": "description",
              "type": "string"
            },
            {
              "internalType": "uint256",
              "name": "amount",
              "type": "uint256"
            },
            {
              "internalType": "uint64",
              "name": "dueDate",
              "type": "uint64"
            },
            {
              "internalType": "enum MilestoneReleaseRule",
              "name": "releaseRule",
              "type": "uint8"
            },
            {
              "internalType": "string",
              "name": "releaseCondition",
              "type": "string"
            }
          ],
          "internalType": "struct MilestoneInput[]",
          "name": "milestoneInputs",
          "type": "tuple[]"
        }
      ],
      "name": "createAndFundEscrow",
      "outputs": [
        {
          "internalType": "uint256",
          "name": "escrowId",
          "type": "uint256"
        }
      ],
      "stateMutability": "nonpayable",
      "type": "function"
    },
    {
      "inputs": [
        {
          "components": [
            {
              "internalType": "string",
              "name": "title",
              "type": "string"
            },
            {
              "internalType": "string",
              "name": "description",
              "type": "string"
            },
            {
              "internalType": "string",
              "name": "clientName",
              "type": "string"
            },
            {
              "internalType": "string",
              "name": "recipientName",
              "type": "string"
            },
            {
              "internalType": "address",
              "name": "recipient",
              "type": "address"
            },
            {
              "internalType": "address",
              "name": "token",
              "type": "address"
            },
            {
              "internalType": "uint256",
              "name": "totalAmount",
              "type": "uint256"
            },
            {
              "internalType": "uint64",
              "name": "fundingDeadline",
              "type": "uint64"
            },
            {
              "internalType": "enum GlobalReleaseRule",
              "name": "defaultReleaseRule",
              "type": "uint8"
            },
            {
              "internalType": "enum RefundPolicy",
              "name": "refundPolicy",
              "type": "uint8"
            },
            {
              "internalType": "enum ResolverType",
              "name": "resolverType",
              "type": "uint8"
            }
          ],
          "internalType": "struct CreateEscrowInput",
          "name": "input",
          "type": "tuple"
        },
        {
          "components": [
            {
              "internalType": "string",
              "name": "title",
              "type": "string"
            },
            {
              "internalType": "string",
              "name": "description",
              "type": "string"
            },
            {
              "internalType": "uint256",
              "name": "amount",
              "type": "uint256"
            },
            {
              "internalType": "uint64",
              "name": "dueDate",
              "type": "uint64"
            },
            {
              "internalType": "enum MilestoneReleaseRule",
              "name": "releaseRule",
              "type": "uint8"
            },
            {
              "internalType": "string",
              "name": "releaseCondition",
              "type": "string"
            }
          ],
          "internalType": "struct MilestoneInput[]",
          "name": "milestoneInputs",
          "type": "tuple[]"
        }
      ],
      "name": "createEscrow",
      "outputs": [
        {
          "internalType": "uint256",
          "name": "escrowId",
          "type": "uint256"
        }
      ],
      "stateMutability": "nonpayable",
      "type": "function"
    },
    {
      "inputs": [
        {
          "internalType": "uint256",
          "name": "escrowId",
          "type": "uint256"
        }
      ],
      "name": "fundEscrow",
      "outputs": [],
      "stateMutability": "nonpayable",
      "type": "function"
    },
    {
      "inputs": [],
      "name": "getEscrowCount",
      "outputs": [
        {
          "internalType": "uint256",
          "name": "",
          "type": "uint256"
        }
      ],
      "stateMutability": "view",
      "type": "function"
    },
    {
      "inputs": [
        {
          "internalType": "address",
          "name": "participant",
          "type": "address"
        }
      ],
      "name": "getEscrowIdsForParticipant",
      "outputs": [
        {
          "internalType": "uint256[]",
          "name": "",
          "type": "uint256[]"
        }
      ],
      "stateMutability": "view",
      "type": "function"
    },
    {
      "inputs": [
        {
          "internalType": "uint256",
          "name": "escrowId",
          "type": "uint256"
        }
      ],
      "name": "getEscrowMilestoneIds",
      "outputs": [
        {
          "internalType": "uint256[]",
          "name": "",
          "type": "uint256[]"
        }
      ],
      "stateMutability": "view",
      "type": "function"
    },
    {
      "inputs": [
        {
          "internalType": "uint256",
          "name": "escrowId",
          "type": "uint256"
        }
      ],
      "name": "getEscrowSummary",
      "outputs": [
        {
          "components": [
            {
              "internalType": "uint256",
              "name": "id",
              "type": "uint256"
            },
            {
              "internalType": "address",
              "name": "client",
              "type": "address"
            },
            {
              "internalType": "address",
              "name": "recipient",
              "type": "address"
            },
            {
              "internalType": "address",
              "name": "token",
              "type": "address"
            },
            {
              "internalType": "uint256",
              "name": "totalAmount",
              "type": "uint256"
            },
            {
              "internalType": "uint256",
              "name": "fundedAmount",
              "type": "uint256"
            },
            {
              "internalType": "uint256",
              "name": "releasedAmount",
              "type": "uint256"
            },
            {
              "internalType": "uint256",
              "name": "refundedAmount",
              "type": "uint256"
            },
            {
              "internalType": "uint64",
              "name": "createdAt",
              "type": "uint64"
            },
            {
              "internalType": "uint64",
              "name": "fundingDeadline",
              "type": "uint64"
            },
            {
              "internalType": "uint64",
              "name": "fundedAt",
              "type": "uint64"
            },
            {
              "internalType": "uint64",
              "name": "completedAt",
              "type": "uint64"
            },
            {
              "internalType": "enum GlobalReleaseRule",
              "name": "defaultReleaseRule",
              "type": "uint8"
            },
            {
              "internalType": "enum RefundPolicy",
              "name": "refundPolicy",
              "type": "uint8"
            },
            {
              "internalType": "enum ResolverType",
              "name": "resolverType",
              "type": "uint8"
            },
            {
              "internalType": "address",
              "name": "resolver",
              "type": "address"
            },
            {
              "internalType": "uint16",
              "name": "resolverFeeBps",
              "type": "uint16"
            },
            {
              "internalType": "enum EscrowStatus",
              "name": "status",
              "type": "uint8"
            },
            {
              "internalType": "uint256",
              "name": "milestoneCount",
              "type": "uint256"
            }
          ],
          "internalType": "struct EscrowSummary",
          "name": "",
          "type": "tuple"
        }
      ],
      "stateMutability": "view",
      "type": "function"
    },
    {
      "inputs": [
        {
          "internalType": "uint256",
          "name": "escrowId",
          "type": "uint256"
        }
      ],
      "name": "getEscrowText",
      "outputs": [
        {
          "components": [
            {
              "internalType": "string",
              "name": "title",
              "type": "string"
            },
            {
              "internalType": "string",
              "name": "description",
              "type": "string"
            },
            {
              "internalType": "string",
              "name": "clientName",
              "type": "string"
            },
            {
              "internalType": "string",
              "name": "recipientName",
              "type": "string"
            }
          ],
          "internalType": "struct EscrowText",
          "name": "",
          "type": "tuple"
        }
      ],
      "stateMutability": "view",
      "type": "function"
    },
    {
      "inputs": [],
      "name": "getMilestoneCount",
      "outputs": [
        {
          "internalType": "uint256",
          "name": "",
          "type": "uint256"
        }
      ],
      "stateMutability": "view",
      "type": "function"
    },
    {
      "inputs": [
        {
          "internalType": "uint256",
          "name": "milestoneId",
          "type": "uint256"
        }
      ],
      "name": "getMilestoneSummary",
      "outputs": [
        {
          "components": [
            {
              "internalType": "uint256",
              "name": "id",
              "type": "uint256"
            },
            {
              "internalType": "uint256",
              "name": "escrowId",
              "type": "uint256"
            },
            {
              "internalType": "uint256",
              "name": "amount",
              "type": "uint256"
            },
            {
              "internalType": "uint64",
              "name": "dueDate",
              "type": "uint64"
            },
            {
              "internalType": "uint64",
              "name": "submittedAt",
              "type": "uint64"
            },
            {
              "internalType": "uint64",
              "name": "reviewDeadline",
              "type": "uint64"
            },
            {
              "internalType": "uint64",
              "name": "resolvedAt",
              "type": "uint64"
            },
            {
              "internalType": "enum MilestoneReleaseRule",
              "name": "releaseRule",
              "type": "uint8"
            },
            {
              "internalType": "enum RefundPolicy",
              "name": "refundPolicy",
              "type": "uint8"
            },
            {
              "internalType": "enum MilestoneStatus",
              "name": "status",
              "type": "uint8"
            },
            {
              "internalType": "bool",
              "name": "clientApproved",
              "type": "bool"
            },
            {
              "internalType": "bool",
              "name": "recipientApproved",
              "type": "bool"
            },
            {
              "internalType": "bool",
              "name": "clientRefundApproved",
              "type": "bool"
            },
            {
              "internalType": "bool",
              "name": "recipientRefundApproved",
              "type": "bool"
            }
          ],
          "internalType": "struct MilestoneSummary",
          "name": "",
          "type": "tuple"
        }
      ],
      "stateMutability": "view",
      "type": "function"
    },
    {
      "inputs": [
        {
          "internalType": "uint256",
          "name": "milestoneId",
          "type": "uint256"
        }
      ],
      "name": "getMilestoneText",
      "outputs": [
        {
          "components": [
            {
              "internalType": "string",
              "name": "title",
              "type": "string"
            },
            {
              "internalType": "string",
              "name": "description",
              "type": "string"
            },
            {
              "internalType": "string",
              "name": "releaseCondition",
              "type": "string"
            }
          ],
          "internalType": "struct MilestoneText",
          "name": "",
          "type": "tuple"
        }
      ],
      "stateMutability": "view",
      "type": "function"
    },
    {
      "inputs": [
        {
          "internalType": "enum ResolverType",
          "name": "resolverType",
          "type": "uint8"
        }
      ],
      "name": "getResolverConfig",
      "outputs": [
        {
          "components": [
            {
              "internalType": "address",
              "name": "resolver",
              "type": "address"
            },
            {
              "internalType": "uint16",
              "name": "feeBps",
              "type": "uint16"
            },
            {
              "internalType": "string",
              "name": "label",
              "type": "string"
            },
            {
              "internalType": "bool",
              "name": "active",
              "type": "bool"
            }
          ],
          "internalType": "struct ResolverConfig",
          "name": "",
          "type": "tuple"
        }
      ],
      "stateMutability": "view",
      "type": "function"
    },
    {
      "inputs": [
        {
          "internalType": "address",
          "name": "initialOwner",
          "type": "address"
        }
      ],
      "name": "initialize",
      "outputs": [],
      "stateMutability": "nonpayable",
      "type": "function"
    },
    {
      "inputs": [
        {
          "internalType": "uint256",
          "name": "milestoneId",
          "type": "uint256"
        },
        {
          "internalType": "string",
          "name": "reason",
          "type": "string"
        }
      ],
      "name": "openDispute",
      "outputs": [],
      "stateMutability": "nonpayable",
      "type": "function"
    },
    {
      "inputs": [],
      "name": "owner",
      "outputs": [
        {
          "internalType": "address",
          "name": "",
          "type": "address"
        }
      ],
      "stateMutability": "view",
      "type": "function"
    },
    {
      "inputs": [
        {
          "internalType": "uint256",
          "name": "milestoneId",
          "type": "uint256"
        }
      ],
      "name": "refundMilestone",
      "outputs": [],
      "stateMutability": "nonpayable",
      "type": "function"
    },
    {
      "inputs": [
        {
          "internalType": "uint256",
          "name": "milestoneId",
          "type": "uint256"
        }
      ],
      "name": "releaseMilestone",
      "outputs": [],
      "stateMutability": "nonpayable",
      "type": "function"
    },
    {
      "inputs": [],
      "name": "renounceOwnership",
      "outputs": [],
      "stateMutability": "nonpayable",
      "type": "function"
    },
    {
      "inputs": [
        {
          "internalType": "uint256",
          "name": "milestoneId",
          "type": "uint256"
        },
        {
          "internalType": "uint256",
          "name": "recipientAmount",
          "type": "uint256"
        },
        {
          "internalType": "uint256",
          "name": "clientRefundAmount",
          "type": "uint256"
        },
        {
          "internalType": "string",
          "name": "resolutionDetails",
          "type": "string"
        }
      ],
      "name": "resolveDispute",
      "outputs": [],
      "stateMutability": "nonpayable",
      "type": "function"
    },
    {
      "inputs": [
        {
          "internalType": "enum ResolverType",
          "name": "resolverType",
          "type": "uint8"
        },
        {
          "internalType": "address",
          "name": "resolver",
          "type": "address"
        },
        {
          "internalType": "uint16",
          "name": "feeBps",
          "type": "uint16"
        },
        {
          "internalType": "string",
          "name": "label",
          "type": "string"
        },
        {
          "internalType": "bool",
          "name": "active",
          "type": "bool"
        }
      ],
      "name": "setResolverConfig",
      "outputs": [],
      "stateMutability": "nonpayable",
      "type": "function"
    },
    {
      "inputs": [
        {
          "internalType": "uint256",
          "name": "milestoneId",
          "type": "uint256"
        }
      ],
      "name": "submitMilestone",
      "outputs": [],
      "stateMutability": "nonpayable",
      "type": "function"
    },
    {
      "inputs": [
        {
          "internalType": "address",
          "name": "newOwner",
          "type": "address"
        }
      ],
      "name": "transferOwnership",
      "outputs": [],
      "stateMutability": "nonpayable",
      "type": "function"
    },
    {
      "stateMutability": "payable",
      "type": "receive"
    }
  ],
  "bytecode": "0x608060405234801561000f575f5ffd5b5060017f9b779b17422d0df92223018b32b4d1fa46e071723d6817e2486d003becc55f005561003c610041565b6100f3565b7ff0c57e16840df040f15088dc2f81fe391c3923bec73e23a9662efc9c229c6a00805468010000000000000000900460ff16156100915760405163f92ee8a960e01b815260040160405180910390fd5b80546001600160401b03908116146100f05780546001600160401b0319166001600160401b0390811782556040519081527fc7f505b2f371ae2175ee4913f4499e1f2633a7b5936321eed1cdaeb6115181d29060200160405180910390a15b50565b6144d6806101005f395ff3fe60806040526004361061019f575f3560e01c80638da5cb5b116100eb578063c9c31af511610089578063f2fde38b11610063578063f2fde38b14610557578063fc83f5e214610576578063fd967f4714610595578063fe844dc8146105bd576101f1565b8063c9c31af5146104ed578063e01824361461050c578063e0b81a721461052b576101f1565b8063b90314ed116100c5578063b90314ed14610471578063be8474f214610490578063c438b40f146104af578063c4d66de8146104ce576101f1565b80638da5cb5b146104125780638f4cf2471461043e5780639f9a774614610452576101f1565b8063348a71a6116101585780636f8e38d8116101325780636f8e38d814610394578063715018a6146103c0578063731d48a4146103d45780637d64b00b146103f3576101f1565b8063348a71a61461032857806336f691c414610347578063555b357814610366576101f1565b80630607d1381461023957806311ba44941461026e57806316b151351461029b5780631f96b03e146102af578063265c6657146102db578063317debf514610307576101f1565b366101f15760405162461bcd60e51b815260206004820152601b60248201527f446972656374207061796d656e7473206e6f7420616c6c6f776564000000000060448201526064015b60405180910390fd5b60405162461bcd60e51b815260206004820152601b60248201527f446972656374207061796d656e7473206e6f7420616c6c6f776564000000000060448201526064016101e8565b348015610244575f5ffd5b506102586102533660046137f1565b6105e9565b6040516102659190613859565b60405180910390f35b348015610279575f5ffd5b5061028d6102883660046139e8565b61060d565b604051908152602001610265565b3480156102a6575f5ffd5b5061028d610644565b3480156102ba575f5ffd5b506102ce6102c93660046137f1565b610659565b6040516102659190613a85565b3480156102e6575f5ffd5b506102fa6102f5366004613ad3565b6106bb565b6040516102659190613b1c565b348015610312575f5ffd5b506103266103213660046137f1565b6107ea565b005b348015610333575f5ffd5b506103266103423660046137f1565b61094b565b348015610352575f5ffd5b50610326610361366004613bb3565b610a7e565b348015610371575f5ffd5b5061037c6206978081565b6040516001600160401b039091168152602001610265565b34801561039f575f5ffd5b506103b36103ae3660046137f1565b610bf4565b6040516102659190613c1a565b3480156103cb575f5ffd5b50610326610c11565b3480156103df575f5ffd5b506103266103ee366004613d41565b610c24565b3480156103fe575f5ffd5b5061032661040d3660046137f1565b610f4c565b34801561041d575f5ffd5b50610426611155565b6040516001600160a01b039091168152602001610265565b348015610449575f5ffd5b5061028d611183565b34801561045d575f5ffd5b5061028d61046c3660046139e8565b611193565b34801561047c575f5ffd5b5061032661048b3660046137f1565b6111a8565b34801561049b575f5ffd5b506103266104aa366004613db2565b6112de565b3480156104ba575f5ffd5b506103266104c93660046137f1565b611519565b3480156104d9575f5ffd5b506103266104e8366004613e42565b6116d0565b3480156104f8575f5ffd5b506103266105073660046137f1565b6117d0565b348015610517575f5ffd5b506103266105263660046137f1565b6117f8565b348015610536575f5ffd5b5061054a6105453660046137f1565b6118d1565b6040516102659190613e5b565b348015610562575f5ffd5b50610326610571366004613e42565b61190a565b348015610581575f5ffd5b506102ce610590366004613e42565b611944565b3480156105a0575f5ffd5b506105aa61271081565b60405161ffff9091168152602001610265565b3480156105c8575f5ffd5b506105dc6105d73660046137f1565b6119ab565b6040516102659190613eba565b6105f16136f1565b5f6105fb836119eb565b905061060681611a22565b9392505050565b5f610616611ba5565b61062284848433611bc0565b905061062e813361228f565b61060660015f5160206144815f395f51905f5255565b5f60016004546106549190613f42565b905090565b6060610664826119eb565b600e018054806020026020016040519081016040528092919081815260200182805480156106af57602002820191905f5260205f20905b81548152602001906001019080831161069b575b50505050509050919050565b604080516080810182525f8082526020820181905260609282018390529181019190915260035f8360028111156106f4576106f4613808565b600281111561070557610705613808565b815260208082019290925260409081015f20815160808101835281546001600160a01b0381168252600160a01b900461ffff1693810193909352600181018054919284019161075390613f55565b80601f016020809104026020016040519081016040528092919081815260200182805461077f90613f55565b80156107ca5780601f106107a1576101008083540402835291602001916107ca565b820191905f5260205f20905b8154815290600101906020018083116107ad57829003601f168201915b50505091835250506002919091015460ff16151560209091015292915050565b6107f2611ba5565b5f6107fc826123f0565b90505f61080c82600101546119eb565b905061081782612422565b6108345760405163088bd32360e11b815260040160405180910390fd5b60068201805462ff00001916620300001790556005820180546001600160c01b0316600160c01b426001600160401b0316021790556004820154600a820180545f90610881908490613f8d565b90915550506006810154600483015460078301546108ad926001600160a01b039182169291169061252d565b6006810154815460048401546040519081526001600160a01b039092169185907fd5eb304362ffe48045a3ae2ed7e0d2cfed08eb62f44dc87c694d42606e8205d99060200160405180910390a4805f0154835f5160206144615f395f51905f526002600360405161091f929190613fa0565b60405180910390a361093081612562565b505061094860015f5160206144815f395f51905f5255565b50565b5f610955826123f0565b90505f61096582600101546119eb565b60058101549091506001600160a01b03163314801590610992575060068101546001600160a01b03163314155b156109b25760405163472511eb60e11b81523360048201526024016101e8565b60068201546109c99062010000900460ff166126c5565b156109ff57828260060160029054906101000a900460ff166001604051637551ebf360e11b81526004016101e893929190613fbb565b60058101546001600160a01b03163303610a315760068201805465ff0000000000191665010000000000179055610a4a565b60068201805466ff0000000000001916600160301b1790555b805460405133919085907f9d35c6921c38318583d0933fe0b9489f47e64c0ce64ef297ccc0e8e28f0ff25e905f90a4505050565b5f610a88846123f0565b90505f610a9882600101546119eb565b60058101549091506001600160a01b03163314801590610ac5575060068101546001600160a01b03163314155b15610ae55760405163472511eb60e11b81523360048201526024016101e8565b5f839003610b1f576040516318a996bb60e21b81526020600482015260066024820152653932b0b9b7b760d11b60448201526064016101e8565b6006820154610b369062010000900460ff166126c5565b15610b545760405163088bd32360e11b815260040160405180910390fd5b60068201805462ff0000198116620500001790915581546040516201000090920460ff169133919088907f05688e455c363b7f4f2bc99de4c8bee105e200361c5da6d47f39291c3c5c787590610bad908a908a90614004565b60405180910390a4815f0154865f5160206144615f395f51905f52836005604051610bd9929190613fa0565b60405180910390a3610bec826004612734565b505050505050565b610bfc613786565b5f610c06836123f0565b9050610606816127de565b610c1961290d565b610c225f61293f565b565b610c2c611ba5565b5f610c36866123f0565b90505f610c4682600101546119eb565b9050610c5281336129af565b610c715760405163472511eb60e11b81523360048201526024016101e8565b6005600683015462010000900460ff166007811115610c9257610c92613808565b14610cc857868260060160029054906101000a900460ff166005604051637551ebf360e11b81526004016101e893929190613fbb565b6004820154610cd78688613f8d565b14610d0d576004820154610ceb8688613f8d565b6040516355bb4dab60e11b8152600481019290925260248201526044016101e8565b6005820180546001600160c01b0316600160c01b426001600160401b0316021790558515610db7578581600a015f828254610d489190613f8d565b909155505060068101546007820154610d6e916001600160a01b0391821691168861252d565b600681015481546040518881526001600160a01b039092169189907fd5eb304362ffe48045a3ae2ed7e0d2cfed08eb62f44dc87c694d42606e8205d99060200160405180910390a45b8415610e3f578481600b015f828254610dd09190613f8d565b909155505060058101546007820154610df6916001600160a01b0391821691168761252d565b600581015481546040518781526001600160a01b039092169189907f45bb3ef8b8173904759bbe0a10364432a4346d86528334f1453cfe178c46b1d89060200160405180910390a45b855f03610e66576006820180546004919062ff0000191662010000835b0217905550610e9b565b845f03610e87576006820180546003919062ff000019166201000083610e5c565b60068201805462ff00001916620600001790555b336001600160a01b0316815f0154887f640c07ee0354cbf4397be6b6c3813c7e6d285b346dcf8d86749fbeea9e2c94c389898989604051610edf9493929190614017565b60405180910390a4805f0154875f5160206144615f395f51905f5260058560060160029054906101000a900460ff16604051610f1c929190613fa0565b60405180910390a3610f2d81612562565b5050610f4560015f5160206144815f395f51905f5255565b5050505050565b5f610f56826123f0565b90505f610f6682600101546119eb565b60068101549091506001600160a01b03163314610f985760405163472511eb60e11b81523360048201526024016101e8565b5f600683015462010000900460ff166007811115610fb857610fb8613808565b14158015610fe557506001600683015462010000900460ff166007811115610fe257610fe2613808565b14155b1561101a57828260060160029054906101000a900460ff165f604051637551ebf360e11b81526004016101e893929190613fbb565b6006820180546201000062ff000019821681179092556005840180546001600160401b0342908116600160401b0267ffffffffffffffff60401b199092169190911790915591900460ff1690611074906206978090614040565b6005840180546001600160401b0392909216600160801b0267ffffffffffffffff60801b1990921691909117905560068301805464ff0000000019166401000000001790556110c4826003612734565b81546005840154604051600160801b9091046001600160401b0316815233919086907fa09a36ba28348aa680e9b8f58a13b0b1321d2bb913b0316e7d02d741688369829060200160405180910390a4815f0154845f5160206144615f395f51905f52838660060160029054906101000a900460ff16604051611147929190613fa0565b60405180910390a350505050565b7f9016d09d72d40fdae2fd8ceac6b6234c7706214fd39c1cd1e609a0528c199300546001600160a01b031690565b5f60016005546106549190613f42565b5f6111a084848433611bc0565b949350505050565b6111b0611ba5565b5f6111ba826123f0565b90505f6111ca82600101546119eb565b90506111d681836129f2565b6111f35760405163088bd32360e11b815260040160405180910390fd5b60068201805462ff00001916620400001790556005820180546001600160c01b0316600160c01b426001600160401b0316021790556004820154600b820180545f90611240908490613f8d565b909155505060058101546004830154600783015461126c926001600160a01b039182169291169061252d565b6005810154815460048401546040519081526001600160a01b039092169185907f45bb3ef8b8173904759bbe0a10364432a4346d86528334f1453cfe178c46b1d89060200160405180910390a4805f0154835f5160206144615f395f51905f526001600460405161091f929190613fa0565b6112e661290d565b5f8660028111156112f9576112f9613808565b0361131957856040516316f5b66f60e11b81526004016101e8919061405f565b6001600160a01b03851661135b5760405163eac0d38960e01b81526020600482015260086024820152673932b9b7b63b32b960c11b60448201526064016101e8565b61271061ffff851611156113825760405163162908e360e11b815260040160405180910390fd5b5f8290036113bb576040516318a996bb60e21b81526020600482015260056024820152641b1858995b60da1b60448201526064016101e8565b6040518060800160405280866001600160a01b031681526020018561ffff16815260200184848080601f0160208091040260200160405190810160405280939291908181526020018383808284375f92018290525093855250505083151560209092019190915260039088600281111561143757611437613808565b600281111561144857611448613808565b815260208082019290925260409081015f20835181549385015161ffff16600160a01b026001600160b01b03199094166001600160a01b0390911617929092178255820151600182019061149c90826140ca565b50606091909101516002918201805460ff19169115159190911790556001600160a01b0386169087908111156114d4576114d4613808565b7f1dc5908d0929ece486384d1e996326e5bc93739b8c5c57eb391eaf31c4abffb7868686866040516115099493929190614184565b60405180910390a3505050505050565b5f611523826123f0565b90505f61153382600101546119eb565b60058101549091506001600160a01b03163314801590611560575060068101546001600160a01b03163314155b156115805760405163472511eb60e11b81523360048201526024016101e8565b6001600683015462010000900460ff1660078111156115a1576115a1613808565b141580156115ce57506002600683015462010000900460ff1660078111156115cb576115cb613808565b14155b1561160457828260060160029054906101000a900460ff166001604051637551ebf360e11b81526004016101e893929190613fbb565b60058101546001600160a01b031633036116325760068201805463ff0000001916630100000017905561164a565b60068201805464ff0000000019166401000000001790555b805460405133919085907f9ffbb52f2a1362273cd74689a516ca4f52c4282dc13e2e68b7e0646a9a7af7a3905f90a461168282612b0a565b156116cb5760068201805462ff0000198116620200001790915581546040516201000090920460ff169185905f5160206144615f395f51905f5290611147908590600290613fa0565b505050565b5f6116d9612bac565b805490915060ff600160401b82041615906001600160401b03165f811580156116ff5750825b90505f826001600160401b0316600114801561171a5750303b155b905081158015611728575080155b156117465760405163f92ee8a960e01b815260040160405180910390fd5b845467ffffffffffffffff19166001178555831561177057845460ff60401b1916600160401b1785555b61177986612bd4565b600160048190556005558315610bec57845460ff60401b19168555604051600181527fc7f505b2f371ae2175ee4913f4499e1f2633a7b5936321eed1cdaeb6115181d29060200160405180910390a1505050505050565b6117d8611ba5565b6117e2813361228f565b61094860015f5160206144815f395f51905f5255565b5f611802826119eb565b60058101549091506001600160a01b031633146118345760405163472511eb60e11b81523360048201526024016101e8565b6001600d820154600160c81b900460ff16600681111561185657611856613808565b146118745760405163088bd32360e11b815260040160405180910390fd5b61187f816006612734565b600c810180546001600160c01b0316600160c01b426001600160401b031602179055604051339083907f6f44c80719cb2f74bdbd68b7af10147acb9b52e2675ad02f9c87f09859959938905f90a35050565b6118f560405180606001604052806060815260200160608152602001606081525090565b5f6118ff836123f0565b905061060681612be5565b61191261290d565b6001600160a01b03811661193b57604051631e4fbdf760e01b81525f60048201526024016101e8565b6109488161293f565b6001600160a01b0381165f908152600260209081526040918290208054835181840281018401909452808452606093928301828280156106af57602002820191905f5260205f209081548152602001906001019080831161069b5750505050509050919050565b6119d66040518060800160405280606081526020016060815260200160608152602001606081525090565b5f6119e0836119eb565b905061060681612dc9565b5f8181526020819052604081208054909103611a1d576040516305b3479760e11b8152600481018390526024016101e8565b919050565b611a2a6136f1565b60408051610260810182528354815260058401546001600160a01b03908116602083015260068501548116928201929092526007840154909116606082015260088301546080820152600983015460a0820152600a83015460c0820152600b83015460e0820152600c8301546001600160401b03808216610100840152600160401b82048116610120840152600160801b82048116610140840152600160c01b90910416610160820152600d83015461018082019060ff166001811115611af357611af3613808565b815260200183600d0160019054906101000a900460ff166002811115611b1b57611b1b613808565b815260200183600d0160029054906101000a900460ff166002811115611b4357611b43613808565b8152600d840154630100000081046001600160a01b03166020830152600160b81b810461ffff166040830152606090910190600160c81b900460ff166006811115611b9057611b90613808565b8152600e909301546020909301929092525090565b611bad612fbe565b60025f5160206144815f395f51905f5255565b5f611bcc858585612fed565b604080516080810182525f80825260208201819052606092820183905291810182905290611c0261016088016101408901613ad3565b6002811115611c1357611c13613808565b14611d7b5760035f611c2d61016089016101408a01613ad3565b6002811115611c3e57611c3e613808565b6002811115611c4f57611c4f613808565b815260208082019290925260409081015f20815160808101835281546001600160a01b0381168252600160a01b900461ffff16938101939093526001810180549192840191611c9d90613f55565b80601f0160208091040260200160405190810160405280929190818152602001828054611cc990613f55565b8015611d145780601f10611ceb57610100808354040283529160200191611d14565b820191905f5260205f20905b815481529060010190602001808311611cf757829003601f168201915b50505091835250506002919091015460ff16151560209091015260608101519091501580611d4a575080516001600160a01b0316155b15611d7b57611d6161016087016101408801613ad3565b60405163612a2c8360e01b81526004016101e8919061405f565b60048054905f611d8a836141b4565b909155505f818152602081905260409020818155909250611dab87806141cc565b6001830191611dbb91908361420e565b50611dc960208801886141cc565b6002830191611dd991908361420e565b50611de760408801886141cc565b6003830191611df791908361420e565b50611e0560608801886141cc565b6004830191611e1591908361420e565b506005810180546001600160a01b0319166001600160a01b038616179055611e4360a0880160808901613e42565b6006820180546001600160a01b0319166001600160a01b0392909216919091179055611e7560c0880160a08901613e42565b6007820180546001600160a01b0319166001600160a01b039290921691909117905560c08701356008820155600c8101805467ffffffffffffffff1916426001600160401b0316179055611ed0610100880160e089016142c7565b600c820180546001600160401b0392909216600160401b0267ffffffffffffffff60401b19909216919091179055611f10610120880161010089016142ed565b600d8201805460ff191660018381811115611f2d57611f2d613808565b0217905550611f4461014088016101208901613ad3565b600d8201805461ff001916610100836002811115611f6457611f64613808565b0217905550611f7b61016088016101408901613ad3565b600d8201805462ff0000191662010000836002811115611f9d57611f9d613808565b02179055508151600d82018054602085015161ffff16600160b81b0261ffff60b81b196001600160a01b03909416630100000002939093166301000000600160c81b0319909116179190911760ff60c81b1916600160c81b1790555f5b858110156121e957600580545f9182612012836141b4565b9190505590503688888481811061202b5761202b61430b565b905060200281019061203d919061431f565b5f83815260016020819052604090912084815590810188905590915061206382806141cc565b600283019161207391908361420e565b5061208160208301836141cc565b600383019161209191908361420e565b50604082013560048201556120ac60808301606084016142c7565b60058201805467ffffffffffffffff19166001600160401b03929092169190911790556120df60a083016080840161433d565b60068201805460ff191660018360038111156120fd576120fd613808565b02179055506121146101408c016101208d01613ad3565b60068201805461ff00191661010083600281111561213457612134613808565b021790555060068101805462ff00001916905561215460a08301836141cc565b600783019161216491908361420e565b50600e850180546001810182555f9182526020909120018390556004810154600582015460068301546040518a9387937f39425a76263c60f1592c9198195efd300ea4ea26b3b80df90c4e241d78c07512936121d6936001600160401b039092169160ff90911690600289019061435b565b60405180910390a3505050600101611ffa565b506121f381613489565b61220360a0880160808901613e42565b6001600160a01b03908116908516847f9b51338707136aeee3b1371c2c40d674c8cd0f56873d94b3c99957c2d2c7b02261224360c08c0160a08d01613e42565b60c08c01356122596101008e0160e08f016142c7565b8d61014001602081019061226d9190613ad3565b60405161227d9493929190614407565b60405180910390a45050949350505050565b5f612299836119eb565b60058101549091506001600160a01b038381169116146122d75760405163472511eb60e11b81526001600160a01b03831660048201526024016101e8565b6001600d820154600160c81b900460ff1660068111156122f9576122f9613808565b146123175760405163088bd32360e11b815260040160405180910390fd5b600c810154600160401b90046001600160401b031642111561234f57604051635a1d29e560e11b8152600481018490526024016101e8565b60088101546007820154612372916001600160a01b0390911690849030906135a6565b600881015460098201819055600c8201805467ffffffffffffffff60801b1916600160801b426001600160401b0316021790556040519081526001600160a01b0383169084907f4a2cd88ec7a748d5b20b3512d7249c67745777b219009075c745923684e9653d9060200160405180910390a36116cb816002612734565b5f8181526001602052604081208054909103611a1d576040516349e87ddb60e11b8152600481018390526024016101e8565b60068101545f9061243b9062010000900460ff166126c5565b1561244757505f919050565b6005600683015462010000900460ff16600781111561246857612468613808565b0361247457505f919050565b6002600683015462010000900460ff16600781111561249557612495613808565b036124a257506001919050565b6002600683015460ff1660038111156124bd576124bd613808565b1480156124e857506001600683015462010000900460ff1660078111156124e6576124e6613808565b145b801561250757506005820154600160801b90046001600160401b031615155b801561252757506005820154600160801b90046001600160401b03164210155b92915050565b61253a83838360016135dc565b6116cb57604051635274afe760e01b81526001600160a01b03841660048201526024016101e8565b806008015481600b015482600a015461257b9190613f8d565b036125dd57600c810180546001600160c01b0316600160c01b426001600160401b0316021790556125ad816005612734565b80546040513391907fe6c766f80c6ea14608101518a9144abbceff6b8abfdee23b529317e2c695d178905f90a350565b5f80805b600e840154811015612697575f60015f86600e0184815481106126065761260661430b565b5f918252602080832090910154835282019290925260400190206006015460ff62010000909104169050600581600781111561264457612644613808565b03612653576001935050612697565b600181600781111561266757612667613808565b14806126845750600281600781111561268257612682613808565b145b1561268e57600192505b506001016125e1565b5081156126a9576116cb836004612734565b80156126ba576116cb836003612734565b6116cb836002612734565b5f60038260078111156126da576126da613808565b14806126f7575060048260078111156126f5576126f5613808565b145b806127135750600682600781111561271157612711613808565b145b806125275750600782600781111561272d5761272d613808565b1492915050565b600d820154600160c81b900460ff1681600681111561275557612755613808565b81600681111561276757612767613808565b0361277157505050565b600d8301805483919060ff60c81b1916600160c81b83600681111561279857612798613808565b021790555082546040517feba6aca1e09c2a0b4d2b142158bba33dc21bc058eb0014814b3cd6081496b404906127d19084908690614445565b60405180910390a2505050565b6127e6613786565b604080516101c081018252835481526001840154602082015260048401549181019190915260058301546001600160401b038082166060840152600160401b820481166080840152600160801b8204811660a0840152600160c01b9091041660c0820152600683015460e082019060ff16600381111561286857612868613808565b81526020018360060160019054906101000a900460ff16600281111561289057612890613808565b81526020018360060160029054906101000a900460ff1660078111156128b8576128b8613808565b815260069093015460ff630100000082048116151560208601526401000000008204811615156040860152650100000000008204811615156060860152600160301b9091041615156080909301929092525090565b33612916611155565b6001600160a01b031614610c225760405163118cdaa760e01b81523360048201526024016101e8565b7f9016d09d72d40fdae2fd8ceac6b6234c7706214fd39c1cd1e609a0528c19930080546001600160a01b031981166001600160a01b03848116918217845560405192169182907f8be0079c531659141344cd1fd0a4f28419497f9722a3daafe3b4186f6b6457e0905f90a3505050565b5f6129b8611155565b6001600160a01b0316826001600160a01b03161480610606575050600d9190910154630100000090046001600160a01b0390811691161490565b60068101545f90612a0b9062010000900460ff166126c5565b15612a1757505f612527565b60016006830154610100900460ff166002811115612a3757612a37613808565b03612a4357505f612527565b60026006830154610100900460ff166002811115612a6357612a63613808565b03612ac557600682015465010000000000900460ff168015612a9057506006820154600160301b900460ff165b8015612abe575060058301546001600160a01b0316331480612abe575060068301546001600160a01b031633145b9050612527565b60058301546001600160a01b031633148015612aee575060058201546001600160401b03164210155b8015610606575050600601546301000000900460ff1615919050565b5f80600683015460ff166003811115612b2557612b25613808565b1480612b4957506002600683015460ff166003811115612b4757612b47613808565b145b80612b6c57506003600683015460ff166003811115612b6a57612b6a613808565b145b15612b835750600601546301000000900460ff1690565b60068201546301000000900460ff16801561252757505060060154640100000000900460ff1690565b5f807ff0c57e16840df040f15088dc2f81fe391c3923bec73e23a9662efc9c229c6a00612527565b612bdc61363e565b61094881613663565b612c0960405180606001604052806060815260200160608152602001606081525090565b6040518060600160405280836002018054612c2390613f55565b80601f0160208091040260200160405190810160405280929190818152602001828054612c4f90613f55565b8015612c9a5780601f10612c7157610100808354040283529160200191612c9a565b820191905f5260205f20905b815481529060010190602001808311612c7d57829003601f168201915b50505050508152602001836003018054612cb390613f55565b80601f0160208091040260200160405190810160405280929190818152602001828054612cdf90613f55565b8015612d2a5780601f10612d0157610100808354040283529160200191612d2a565b820191905f5260205f20905b815481529060010190602001808311612d0d57829003601f168201915b50505050508152602001836007018054612d4390613f55565b80601f0160208091040260200160405190810160405280929190818152602001828054612d6f90613f55565b8015612dba5780601f10612d9157610100808354040283529160200191612dba565b820191905f5260205f20905b815481529060010190602001808311612d9d57829003601f168201915b50505050508152509050919050565b612df46040518060800160405280606081526020016060815260200160608152602001606081525090565b6040518060800160405280836001018054612e0e90613f55565b80601f0160208091040260200160405190810160405280929190818152602001828054612e3a90613f55565b8015612e855780601f10612e5c57610100808354040283529160200191612e85565b820191905f5260205f20905b815481529060010190602001808311612e6857829003601f168201915b50505050508152602001836002018054612e9e90613f55565b80601f0160208091040260200160405190810160405280929190818152602001828054612eca90613f55565b8015612f155780601f10612eec57610100808354040283529160200191612f15565b820191905f5260205f20905b815481529060010190602001808311612ef857829003601f168201915b50505050508152602001836003018054612f2e90613f55565b80601f0160208091040260200160405190810160405280929190818152602001828054612f5a90613f55565b8015612fa55780601f10612f7c57610100808354040283529160200191612fa5565b820191905f5260205f20905b815481529060010190602001808311612f8857829003601f168201915b50505050508152602001836004018054612d4390613f55565b5f5160206144815f395f51905f5254600203610c2257604051633ee5aeb560e01b815260040160405180910390fd5b5f612ffe60a0850160808601613e42565b6001600160a01b0316036130415760405163eac0d38960e01b81526020600482015260096024820152681c9958da5c1a595b9d60ba1b60448201526064016101e8565b5f61305260c0850160a08601613e42565b6001600160a01b0316036130915760405163eac0d38960e01b81526020600482015260056024820152643a37b5b2b760d91b60448201526064016101e8565b8260c001355f036130b55760405163162908e360e11b815260040160405180910390fd5b426130c7610100850160e086016142c7565b6001600160401b0316116131105760405163938baea760e01b815260206004820152600f60248201526e66756e64696e67446561646c696e6560881b60448201526064016101e8565b61311a83806141cc565b90505f03613153576040516318a996bb60e21b81526020600482015260056024820152647469746c6560d81b60448201526064016101e8565b61316060208401846141cc565b90505f0361319f576040516318a996bb60e21b815260206004820152600b60248201526a3232b9b1b934b83a34b7b760a91b60448201526064016101e8565b6131ac60408401846141cc565b90505f036131ea576040516318a996bb60e21b815260206004820152600a602482015269636c69656e744e616d6560b01b60448201526064016101e8565b6131f760608401846141cc565b90505f03613238576040516318a996bb60e21b815260206004820152600d60248201526c726563697069656e744e616d6560981b60448201526064016101e8565b5f8190036132595760405163162908e360e11b815260040160405180910390fd5b5f805b8281101561345157368484838181106132775761327761430b565b9050602002810190613289919061431f565b905061329581806141cc565b90505f036132d8576040516318a996bb60e21b815260206004820152600f60248201526e6d696c6573746f6e652e7469746c6560881b60448201526064016101e8565b6132e560208201826141cc565b90505f0361332e576040516318a996bb60e21b815260206004820152601560248201527436b4b632b9ba37b732973232b9b1b934b83a34b7b760591b60448201526064016101e8565b80604001355f036133525760405163162908e360e11b815260040160405180910390fd5b4261336360808301606084016142c7565b6001600160401b0316116133ae5760405163938baea760e01b81526020600482015260116024820152706d696c6573746f6e652e6475654461746560781b60448201526064016101e8565b60036133c060a083016080840161433d565b60038111156133d1576133d1613808565b1480156133ea57506133e660a08201826141cc565b1590505b15613438576040516318a996bb60e21b815260206004820152601a60248201527f6d696c6573746f6e652e72656c65617365436f6e646974696f6e00000000000060448201526064016101e8565b613446604082013584613f8d565b92505060010161325c565b508360c0013581146134835760405163562f195f60e01b815260c08501356004820152602481018290526044016101e8565b50505050565b6005810180546001600160a01b039081165f90815260026020908152604082208554815460018101835591845291909220909101559054600683015482169116146135015760068101546001600160a01b03165f90815260026020908152604082208354815460018101835591845291909220909101555b600d810154630100000090046001600160a01b03161580159061354057506005810154600d820154630100000090046001600160a01b03908116911614155b801561356857506006810154600d820154630100000090046001600160a01b03908116911614155b1561094857600d810154630100000090046001600160a01b03165f908152600260209081526040822092548354600181018555938352912090910155565b6135b484848484600161366b565b61348357604051635274afe760e01b81526001600160a01b03851660048201526024016101e8565b60405163a9059cbb60e01b5f8181526001600160a01b038616600452602485905291602083604481808b5af1925060015f51148316613632578383151615613626573d5f823e3d81fd5b5f873b113d1516831692505b60405250949350505050565b6136466136d8565b610c2257604051631afcd79f60e31b815260040160405180910390fd5b61191261363e565b6040516323b872dd60e01b5f8181526001600160a01b038781166004528616602452604485905291602083606481808c5af1925060015f511483166136c75783831516156136bb573d5f823e3d81fd5b5f883b113d1516831692505b604052505f60605295945050505050565b5f6136e1612bac565b54600160401b900460ff16919050565b60408051610260810182525f80825260208201819052918101829052606081018290526080810182905260a0810182905260c0810182905260e0810182905261010081018290526101208101829052610140810182905261016081018290529061018082019081526020015f81526020015f81525f602082018190526040820181905260609091019081526020015f81525090565b604080516101c0810182525f80825260208201819052918101829052606081018290526080810182905260a0810182905260c081018290529060e082019081526020015f81526020015f81525f60208201819052604082018190526060820181905260809091015290565b5f60208284031215613801575f5ffd5b5035919050565b634e487b7160e01b5f52602160045260245ffd5b6002811061382c5761382c613808565b9052565b6003811061094857610948613808565b61382c81613830565b6007811061382c5761382c613808565b8151815260208083015161026083019161387d908401826001600160a01b03169052565b50604083015161389860408401826001600160a01b03169052565b5060608301516138b360608401826001600160a01b03169052565b506080830151608083015260a083015160a083015260c083015160c083015260e083015160e08301526101008301516138f86101008401826001600160401b03169052565b506101208301516139156101208401826001600160401b03169052565b506101408301516139326101408401826001600160401b03169052565b5061016083015161394f6101608401826001600160401b03169052565b5061018083015161396461018084018261381c565b506101a08301516139796101a0840182613840565b506101c083015161398e6101c0840182613840565b506101e08301516139ab6101e08401826001600160a01b03169052565b506102008301516139c361020084018261ffff169052565b506102208301516139d8610220840182613849565b5061024092830151919092015290565b5f5f5f604084860312156139fa575f5ffd5b83356001600160401b03811115613a0f575f5ffd5b84016101608187031215613a21575f5ffd5b925060208401356001600160401b03811115613a3b575f5ffd5b8401601f81018613613a4b575f5ffd5b80356001600160401b03811115613a60575f5ffd5b8660208260051b8401011115613a74575f5ffd5b939660209190910195509293505050565b602080825282518282018190525f918401906040840190835b81811015613abc578351835260209384019390920191600101613a9e565b509095945050505050565b60038110610948575f5ffd5b5f60208284031215613ae3575f5ffd5b813561060681613ac7565b5f81518084528060208401602086015e5f602082860101526020601f19601f83011685010191505092915050565b6020815260018060a01b03825116602082015261ffff60208301511660408201525f604083015160806060840152613b5760a0840182613aee565b90506060840151151560808401528091505092915050565b5f5f83601f840112613b7f575f5ffd5b5081356001600160401b03811115613b95575f5ffd5b602083019150836020828501011115613bac575f5ffd5b9250929050565b5f5f5f60408486031215613bc5575f5ffd5b8335925060208401356001600160401b03811115613be1575f5ffd5b613bed86828701613b6f565b9497909650939450505050565b6004811061382c5761382c613808565b6008811061382c5761382c613808565b5f6101c0820190508251825260208301516020830152604083015160408301526060830151613c5460608401826001600160401b03169052565b506080830151613c6f60808401826001600160401b03169052565b5060a0830151613c8a60a08401826001600160401b03169052565b5060c0830151613ca560c08401826001600160401b03169052565b5060e0830151613cb860e0840182613bfa565b50610100830151613ccd610100840182613840565b50610120830151613ce2610120840182613c0a565b50610140830151613cf861014084018215159052565b50610160830151613d0e61016084018215159052565b50610180830151613d2461018084018215159052565b506101a0830151613d3a6101a084018215159052565b5092915050565b5f5f5f5f5f60808688031215613d55575f5ffd5b85359450602086013593506040860135925060608601356001600160401b03811115613d7f575f5ffd5b613d8b88828901613b6f565b969995985093965092949392505050565b80356001600160a01b0381168114611a1d575f5ffd5b5f5f5f5f5f5f60a08789031215613dc7575f5ffd5b8635613dd281613ac7565b9550613de060208801613d9c565b9450604087013561ffff81168114613df6575f5ffd5b935060608701356001600160401b03811115613e10575f5ffd5b613e1c89828a01613b6f565b90945092505060808701358015158114613e34575f5ffd5b809150509295509295509295565b5f60208284031215613e52575f5ffd5b61060682613d9c565b602081525f825160606020840152613e766080840182613aee565b90506020840151601f19848303016040850152613e938282613aee565b9150506040840151601f19848303016060850152613eb18282613aee565b95945050505050565b602081525f825160806020840152613ed560a0840182613aee565b90506020840151601f19848303016040850152613ef28282613aee565b9150506040840151601f19848303016060850152613f108282613aee565b9150506060840151601f19848303016080850152613eb18282613aee565b634e487b7160e01b5f52601160045260245ffd5b8181038181111561252757612527613f2e565b600181811c90821680613f6957607f821691505b602082108103613f8757634e487b7160e01b5f52602260045260245ffd5b50919050565b8082018082111561252757612527613f2e565b60408101613fae8285613c0a565b6106066020830184613c0a565b83815260608101613fcf6020830185613c0a565b6111a06040830184613c0a565b81835281816020850137505f828201602090810191909152601f909101601f19169091010190565b602081525f6111a0602083018486613fdc565b848152836020820152606060408201525f614036606083018486613fdc565b9695505050505050565b6001600160401b03818116838216019081111561252757612527613f2e565b6020810161406c83613830565b91905290565b634e487b7160e01b5f52604160045260245ffd5b601f8211156116cb57805f5260205f20601f840160051c810160208510156140ab5750805b601f840160051c820191505b81811015610f45575f81556001016140b7565b81516001600160401b038111156140e3576140e3614072565b6140f7816140f18454613f55565b84614086565b6020601f821160018114614129575f83156141125750848201515b5f19600385901b1c1916600184901b178455610f45565b5f84815260208120601f198516915b828110156141585787850151825560209485019460019092019101614138565b508482101561417557868401515f19600387901b60f8161c191681555b50505050600190811b01905550565b61ffff85168152606060208201525f6141a1606083018587613fdc565b9050821515604083015295945050505050565b5f600182016141c5576141c5613f2e565b5060010190565b5f5f8335601e198436030181126141e1575f5ffd5b8301803591506001600160401b038211156141fa575f5ffd5b602001915036819003821315613bac575f5ffd5b6001600160401b0383111561422557614225614072565b614239836142338354613f55565b83614086565b5f601f84116001811461426a575f85156142535750838201355b5f19600387901b1c1916600186901b178355610f45565b5f83815260208120601f198716915b828110156142995786850135825560209485019460019092019101614279565b50868210156142b5575f1960f88860031b161c19848701351681555b505060018560011b0183555050505050565b5f602082840312156142d7575f5ffd5b81356001600160401b0381168114610606575f5ffd5b5f602082840312156142fd575f5ffd5b813560028110610606575f5ffd5b634e487b7160e01b5f52603260045260245ffd5b5f823560be19833603018112614333575f5ffd5b9190910192915050565b5f6020828403121561434d575f5ffd5b813560048110610606575f5ffd5b8481526001600160401b038416602082015261437a6040820184613bfa565b608060608201525f5f835461438e81613f55565b806080860152600182165f81146143ac57600181146143c8576143f9565b60ff19831660a087015260a082151560051b87010193506143f9565b865f5260205f205f5b838110156143f057815488820160a001526001909101906020016143d1565b870160a0019450505b509198975050505050505050565b6001600160a01b0385168152602081018490526001600160401b03831660408201526080810161443683613830565b82606083015295945050505050565b604081016144538285613849565b610606602083018461384956fe523733945a2da57904499d44e5f408bbea07db24d363a294f18c471c508270c09b779b17422d0df92223018b32b4d1fa46e071723d6817e2486d003becc55f00a2646970667358221220ff04e0714215af96cb2ab3f5d2a5d443a61ad599c3ee2f1768113dd682c67c8664736f6c634300081c0033",
  "linkReferences": {},
  "deployedLinkReferences": {},
  "immutableReferences": {},
  "inputSourceName": "project/contracts/Escrow.sol",
  "buildInfoId": "solc-0_8_28-64432236bb8ea38d0467e48028ab795b0ecf0d99"
}