{
  "_format": "hh3-artifact-1",
  "contractName": "EscrowReader",
  "sourceName": "contracts/EscrowReader.sol",
  "abi": [
    {
      "inputs": [
        {
          "internalType": "address",
          "name": "escrowAddress",
          "type": "address"
        }
      ],
      "stateMutability": "nonpayable",
      "type": "constructor"
    },
    {
      "inputs": [],
      "name": "escrow",
      "outputs": [
        {
          "internalType": "contract IEscrowReaderSource",
          "name": "",
          "type": "address"
        }
      ],
      "stateMutability": "view",
      "type": "function"
    },
    {
      "inputs": [
        {
          "internalType": "uint256",
          "name": "escrowId",
          "type": "uint256"
        }
      ],
      "name": "getEscrow",
      "outputs": [
        {
          "components": [
            {
              "components": [
                {
                  "internalType": "uint256",
                  "name": "id",
                  "type": "uint256"
                },
                {
                  "internalType": "address",
                  "name": "client",
                  "type": "address"
                },
                {
                  "internalType": "address",
                  "name": "recipient",
                  "type": "address"
                },
                {
                  "internalType": "address",
                  "name": "token",
                  "type": "address"
                },
                {
                  "internalType": "uint256",
                  "name": "totalAmount",
                  "type": "uint256"
                },
                {
                  "internalType": "uint256",
                  "name": "fundedAmount",
                  "type": "uint256"
                },
                {
                  "internalType": "uint256",
                  "name": "releasedAmount",
                  "type": "uint256"
                },
                {
                  "internalType": "uint256",
                  "name": "refundedAmount",
                  "type": "uint256"
                },
                {
                  "internalType": "uint64",
                  "name": "createdAt",
                  "type": "uint64"
                },
                {
                  "internalType": "uint64",
                  "name": "fundingDeadline",
                  "type": "uint64"
                },
                {
                  "internalType": "uint64",
                  "name": "fundedAt",
                  "type": "uint64"
                },
                {
                  "internalType": "uint64",
                  "name": "completedAt",
                  "type": "uint64"
                },
                {
                  "internalType": "enum GlobalReleaseRule",
                  "name": "defaultReleaseRule",
                  "type": "uint8"
                },
                {
                  "internalType": "enum RefundPolicy",
                  "name": "refundPolicy",
                  "type": "uint8"
                },
                {
                  "internalType": "enum ResolverType",
                  "name": "resolverType",
                  "type": "uint8"
                },
                {
                  "internalType": "address",
                  "name": "resolver",
                  "type": "address"
                },
                {
                  "internalType": "uint16",
                  "name": "resolverFeeBps",
                  "type": "uint16"
                },
                {
                  "internalType": "enum EscrowStatus",
                  "name": "status",
                  "type": "uint8"
                },
                {
                  "internalType": "uint256",
                  "name": "milestoneCount",
                  "type": "uint256"
                }
              ],
              "internalType": "struct EscrowSummary",
              "name": "summary",
              "type": "tuple"
            },
            {
              "components": [
                {
                  "internalType": "string",
                  "name": "title",
                  "type": "string"
                },
                {
                  "internalType": "string",
                  "name": "description",
                  "type": "string"
                },
                {
                  "internalType": "string",
                  "name": "clientName",
                  "type": "string"
                },
                {
                  "internalType": "string",
                  "name": "recipientName",
                  "type": "string"
                }
              ],
              "internalType": "struct EscrowText",
              "name": "text",
              "type": "tuple"
            },
            {
              "internalType": "uint256[]",
              "name": "milestoneIds",
              "type": "uint256[]"
            },
            {
              "components": [
                {
                  "components": [
                    {
                      "internalType": "uint256",
                      "name": "id",
                      "type": "uint256"
                    },
                    {
                      "internalType": "uint256",
                      "name": "escrowId",
                      "type": "uint256"
                    },
                    {
                      "internalType": "uint256",
                      "name": "amount",
                      "type": "uint256"
                    },
                    {
                      "internalType": "uint64",
                      "name": "dueDate",
                      "type": "uint64"
                    },
                    {
                      "internalType": "uint64",
                      "name": "submittedAt",
                      "type": "uint64"
                    },
                    {
                      "internalType": "uint64",
                      "name": "reviewDeadline",
                      "type": "uint64"
                    },
                    {
                      "internalType": "uint64",
                      "name": "resolvedAt",
                      "type": "uint64"
                    },
                    {
                      "internalType": "enum MilestoneReleaseRule",
                      "name": "releaseRule",
                      "type": "uint8"
                    },
                    {
                      "internalType": "enum RefundPolicy",
                      "name": "refundPolicy",
                      "type": "uint8"
                    },
                    {
                      "internalType": "enum MilestoneStatus",
                      "name": "status",
                      "type": "uint8"
                    },
                    {
                      "internalType": "bool",
                      "name": "clientApproved",
                      "type": "bool"
                    },
                    {
                      "internalType": "bool",
                      "name": "recipientApproved",
                      "type": "bool"
                    },
                    {
                      "internalType": "bool",
                      "name": "clientRefundApproved",
                      "type": "bool"
                    },
                    {
                      "internalType": "bool",
                      "name": "recipientRefundApproved",
                      "type": "bool"
                    }
                  ],
                  "internalType": "struct MilestoneSummary",
                  "name": "summary",
                  "type": "tuple"
                },
                {
                  "components": [
                    {
                      "internalType": "string",
                      "name": "title",
                      "type": "string"
                    },
                    {
                      "internalType": "string",
                      "name": "description",
                      "type": "string"
                    },
                    {
                      "internalType": "string",
                      "name": "releaseCondition",
                      "type": "string"
                    }
                  ],
                  "internalType": "struct MilestoneText",
                  "name": "text",
                  "type": "tuple"
                }
              ],
              "internalType": "struct MilestoneView[]",
              "name": "milestones",
              "type": "tuple[]"
            }
          ],
          "internalType": "struct EscrowView",
          "name": "escrowView",
          "type": "tuple"
        }
      ],
      "stateMutability": "view",
      "type": "function"
    },
    {
      "inputs": [
        {
          "internalType": "address",
          "name": "participant",
          "type": "address"
        }
      ],
      "name": "getEscrowsForParticipant",
      "outputs": [
        {
          "components": [
            {
              "components": [
                {
                  "internalType": "uint256",
                  "name": "id",
                  "type": "uint256"
                },
                {
                  "internalType": "address",
                  "name": "client",
                  "type": "address"
                },
                {
                  "internalType": "address",
                  "name": "recipient",
                  "type": "address"
                },
                {
                  "internalType": "address",
                  "name": "token",
                  "type": "address"
                },
                {
                  "internalType": "uint256",
                  "name": "totalAmount",
                  "type": "uint256"
                },
                {
                  "internalType": "uint256",
                  "name": "fundedAmount",
                  "type": "uint256"
                },
                {
                  "internalType": "uint256",
                  "name": "releasedAmount",
                  "type": "uint256"
                },
                {
                  "internalType": "uint256",
                  "name": "refundedAmount",
                  "type": "uint256"
                },
                {
                  "internalType": "uint64",
                  "name": "createdAt",
                  "type": "uint64"
                },
                {
                  "internalType": "uint64",
                  "name": "fundingDeadline",
                  "type": "uint64"
                },
                {
                  "internalType": "uint64",
                  "name": "fundedAt",
                  "type": "uint64"
                },
                {
                  "internalType": "uint64",
                  "name": "completedAt",
                  "type": "uint64"
                },
                {
                  "internalType": "enum GlobalReleaseRule",
                  "name": "defaultReleaseRule",
                  "type": "uint8"
                },
                {
                  "internalType": "enum RefundPolicy",
                  "name": "refundPolicy",
                  "type": "uint8"
                },
                {
                  "internalType": "enum ResolverType",
                  "name": "resolverType",
                  "type": "uint8"
                },
                {
                  "internalType": "address",
                  "name": "resolver",
                  "type": "address"
                },
                {
                  "internalType": "uint16",
                  "name": "resolverFeeBps",
                  "type": "uint16"
                },
                {
                  "internalType": "enum EscrowStatus",
                  "name": "status",
                  "type": "uint8"
                },
                {
                  "internalType": "uint256",
                  "name": "milestoneCount",
                  "type": "uint256"
                }
              ],
              "internalType": "struct EscrowSummary",
              "name": "summary",
              "type": "tuple"
            },
            {
              "components": [
                {
                  "internalType": "string",
                  "name": "title",
                  "type": "string"
                },
                {
                  "internalType": "string",
                  "name": "description",
                  "type": "string"
                },
                {
                  "internalType": "string",
                  "name": "clientName",
                  "type": "string"
                },
                {
                  "internalType": "string",
                  "name": "recipientName",
                  "type": "string"
                }
              ],
              "internalType": "struct EscrowText",
              "name": "text",
              "type": "tuple"
            },
            {
              "internalType": "uint256[]",
              "name": "milestoneIds",
              "type": "uint256[]"
            },
            {
              "components": [
                {
                  "components": [
                    {
                      "internalType": "uint256",
                      "name": "id",
                      "type": "uint256"
                    },
                    {
                      "internalType": "uint256",
                      "name": "escrowId",
                      "type": "uint256"
                    },
                    {
                      "internalType": "uint256",
                      "name": "amount",
                      "type": "uint256"
                    },
                    {
                      "internalType": "uint64",
                      "name": "dueDate",
                      "type": "uint64"
                    },
                    {
                      "internalType": "uint64",
                      "name": "submittedAt",
                      "type": "uint64"
                    },
                    {
                      "internalType": "uint64",
                      "name": "reviewDeadline",
                      "type": "uint64"
                    },
                    {
                      "internalType": "uint64",
                      "name": "resolvedAt",
                      "type": "uint64"
                    },
                    {
                      "internalType": "enum MilestoneReleaseRule",
                      "name": "releaseRule",
                      "type": "uint8"
                    },
                    {
                      "internalType": "enum RefundPolicy",
                      "name": "refundPolicy",
                      "type": "uint8"
                    },
                    {
                      "internalType": "enum MilestoneStatus",
                      "name": "status",
                      "type": "uint8"
                    },
                    {
                      "internalType": "bool",
                      "name": "clientApproved",
                      "type": "bool"
                    },
                    {
                      "internalType": "bool",
                      "name": "recipientApproved",
                      "type": "bool"
                    },
                    {
                      "internalType": "bool",
                      "name": "clientRefundApproved",
                      "type": "bool"
                    },
                    {
                      "internalType": "bool",
                      "name": "recipientRefundApproved",
                      "type": "bool"
                    }
                  ],
                  "internalType": "struct MilestoneSummary",
                  "name": "summary",
                  "type": "tuple"
                },
                {
                  "components": [
                    {
                      "internalType": "string",
                      "name": "title",
                      "type": "string"
                    },
                    {
                      "internalType": "string",
                      "name": "description",
                      "type": "string"
                    },
                    {
                      "internalType": "string",
                      "name": "releaseCondition",
                      "type": "string"
                    }
                  ],
                  "internalType": "struct MilestoneText",
                  "name": "text",
                  "type": "tuple"
                }
              ],
              "internalType": "struct MilestoneView[]",
              "name": "milestones",
              "type": "tuple[]"
            }
          ],
          "internalType": "struct EscrowView[]",
          "name": "escrowViews",
          "type": "tuple[]"
        }
      ],
      "stateMutability": "view",
      "type": "function"
    },
    {
      "inputs": [
        {
          "internalType": "uint256",
          "name": "milestoneId",
          "type": "uint256"
        }
      ],
      "name": "getMilestone",
      "outputs": [
        {
          "components": [
            {
              "components": [
                {
                  "internalType": "uint256",
                  "name": "id",
                  "type": "uint256"
                },
                {
                  "internalType": "uint256",
                  "name": "escrowId",
                  "type": "uint256"
                },
                {
                  "internalType": "uint256",
                  "name": "amount",
                  "type": "uint256"
                },
                {
                  "internalType": "uint64",
                  "name": "dueDate",
                  "type": "uint64"
                },
                {
                  "internalType": "uint64",
                  "name": "submittedAt",
                  "type": "uint64"
                },
                {
                  "internalType": "uint64",
                  "name": "reviewDeadline",
                  "type": "uint64"
                },
                {
                  "internalType": "uint64",
                  "name": "resolvedAt",
                  "type": "uint64"
                },
                {
                  "internalType": "enum MilestoneReleaseRule",
                  "name": "releaseRule",
                  "type": "uint8"
                },
                {
                  "internalType": "enum RefundPolicy",
                  "name": "refundPolicy",
                  "type": "uint8"
                },
                {
                  "internalType": "enum MilestoneStatus",
                  "name": "status",
                  "type": "uint8"
                },
                {
                  "internalType": "bool",
                  "name": "clientApproved",
                  "type": "bool"
                },
                {
                  "internalType": "bool",
                  "name": "recipientApproved",
                  "type": "bool"
                },
                {
                  "internalType": "bool",
                  "name": "clientRefundApproved",
                  "type": "bool"
                },
                {
                  "internalType": "bool",
                  "name": "recipientRefundApproved",
                  "type": "bool"
                }
              ],
              "internalType": "struct MilestoneSummary",
              "name": "summary",
              "type": "tuple"
            },
            {
              "components": [
                {
                  "internalType": "string",
                  "name": "title",
                  "type": "string"
                },
                {
                  "internalType": "string",
                  "name": "description",
                  "type": "string"
                },
                {
                  "internalType": "string",
                  "name": "releaseCondition",
                  "type": "string"
                }
              ],
              "internalType": "struct MilestoneText",
              "name": "text",
              "type": "tuple"
            }
          ],
          "internalType": "struct MilestoneView",
          "name": "milestoneView",
          "type": "tuple"
        }
      ],
      "stateMutability": "view",
      "type": "function"
    }
  ],
  "bytecode": "0x60a060405234801561000f575f5ffd5b5060405161180438038061180483398101604081905261002e9161003f565b6001600160a01b031660805261006c565b5f6020828403121561004f575f5ffd5b81516001600160a01b0381168114610065575f5ffd5b9392505050565b6080516117346100d05f395f818160bc0152818161011a01528181610206015281816102c60152818161036f01528181610478015281816105020152818161059c01528181610626015281816106b4015281816107c2015261088201526117345ff3fe608060405234801561000f575f5ffd5b506004361061004a575f3560e01c80631a4188761461004e5780632442e1cb146100775780637d19e59614610097578063e2fdcc17146100b7575b5f5ffd5b61006161005c366004610aca565b6100f6565b60405161006e9190610fe4565b60405180910390f35b61008a610085366004611047565b61045a565b60405161006e919061105e565b6100aa6100a5366004611047565b61057f565b60405161006e9190611070565b6100de7f000000000000000000000000000000000000000000000000000000000000000081565b6040516001600160a01b03909116815260200161006e565b604051637e41faf160e11b81526001600160a01b0382811660048301526060915f917f0000000000000000000000000000000000000000000000000000000000000000169063fc83f5e2906024015f60405180830381865afa15801561015e573d5f5f3e3d5ffd5b505050506040513d5f823e601f3d908101601f191682016040526101859190810190611156565b905080516001600160401b038111156101a0576101a0611082565b6040519080825280602002602001820160405280156101d957816020015b6101c6610924565b8152602001906001900390816101be5790505b5091505f5b8151811015610453575f8282815181106101fa576101fa611200565b602002602001015190507f00000000000000000000000000000000000000000000000000000000000000006001600160a01b0316630607d138826040518263ffffffff1660e01b815260040161025291815260200190565b61026060405180830381865afa15801561026e573d5f5f3e3d5ffd5b505050506040513d601f19601f820116820180604052508101906102929190611275565b8483815181106102a4576102a4611200565b602090810291909101015152604051631fd089b960e31b8152600481018290527f00000000000000000000000000000000000000000000000000000000000000006001600160a01b03169063fe844dc8906024015f60405180830381865afa158015610312573d5f5f3e3d5ffd5b505050506040513d5f823e601f3d908101601f19168201604052610339919081019061142c565b84838151811061034b5761034b611200565b6020908102919091018101510152604051630fcb581f60e11b8152600481018290527f00000000000000000000000000000000000000000000000000000000000000006001600160a01b031690631f96b03e906024015f60405180830381865afa1580156103bb573d5f5f3e3d5ffd5b505050506040513d5f823e601f3d908101601f191682016040526103e29190810190611156565b8483815181106103f4576103f4611200565b60200260200101516040018190525061042984838151811061041857610418611200565b602002602001015160400151610741565b84838151811061043b5761043b611200565b602090810291909101015160600152506001016101de565b5050919050565b610462610a0c565b604051630df1c71b60e31b8152600481018390527f00000000000000000000000000000000000000000000000000000000000000006001600160a01b031690636f8e38d8906024016101c060405180830381865afa1580156104c6573d5f5f3e3d5ffd5b505050506040513d601f19601f820116820180604052508101906104ea919061153f565b815260405163705c0d3960e11b8152600481018390527f00000000000000000000000000000000000000000000000000000000000000006001600160a01b03169063e0b81a72906024015f60405180830381865afa15801561054e573d5f5f3e3d5ffd5b505050506040513d5f823e601f3d908101601f191682016040526105759190810190611640565b6020820152919050565b610587610924565b60405162c0fa2760e31b8152600481018390527f00000000000000000000000000000000000000000000000000000000000000006001600160a01b031690630607d1389060240161026060405180830381865afa1580156105ea573d5f5f3e3d5ffd5b505050506040513d601f19601f8201168201806040525081019061060e9190611275565b8152604051631fd089b960e31b8152600481018390527f00000000000000000000000000000000000000000000000000000000000000006001600160a01b03169063fe844dc8906024015f60405180830381865afa158015610672573d5f5f3e3d5ffd5b505050506040513d5f823e601f3d908101601f19168201604052610699919081019061142c565b6020820152604051630fcb581f60e11b8152600481018390527f00000000000000000000000000000000000000000000000000000000000000006001600160a01b031690631f96b03e906024015f60405180830381865afa158015610700573d5f5f3e3d5ffd5b505050506040513d5f823e601f3d908101601f191682016040526107279190810190611156565b6040820181905261073790610741565b6060820152919050565b606081516001600160401b0381111561075c5761075c611082565b60405190808252806020026020018201604052801561079557816020015b610782610a0c565b81526020019060019003908161077a5790505b5090505f5b825181101561091e575f8382815181106107b6576107b6611200565b602002602001015190507f00000000000000000000000000000000000000000000000000000000000000006001600160a01b0316636f8e38d8826040518263ffffffff1660e01b815260040161080e91815260200190565b6101c060405180830381865afa15801561082a573d5f5f3e3d5ffd5b505050506040513d601f19601f8201168201806040525081019061084e919061153f565b83838151811061086057610860611200565b60209081029190910101515260405163705c0d3960e11b8152600481018290527f00000000000000000000000000000000000000000000000000000000000000006001600160a01b03169063e0b81a72906024015f60405180830381865afa1580156108ce573d5f5f3e3d5ffd5b505050506040513d5f823e601f3d908101601f191682016040526108f59190810190611640565b83838151811061090757610907611200565b60209081029190910181015101525060010161079a565b50919050565b604080516102e081019091525f6080820181815260a0830182905260c0830182905260e08301829052610100830182905261012083018290526101408301829052610160830182905261018083018290526101a083018290526101c083018290526101e08301829052610200830182905261022083018290526102408301829052610260830182905261028083018290526102a083018290526102c0830191909152819081526020016109f86040518060800160405280606081526020016060815260200160608152602001606081525090565b815260200160608152602001606081525090565b60408051610200810182525f918101828152606082018390526080820183905260a0820183905260c0820183905260e08201839052610100820183905261012082018390526101408201839052610160820183905261018082018390526101a082018390526101c082018390526101e08201929092529081908152602001610aae60405180606001604052806060815260200160608152602001606081525090565b905290565b6001600160a01b0381168114610ac7575f5ffd5b50565b5f60208284031215610ada575f5ffd5b8135610ae581610ab3565b9392505050565b634e487b7160e01b5f52602160045260245ffd5b60028110610b1057610b10610aec565b9052565b60038110610b1057610b10610aec565b60078110610b1057610b10610aec565b5f81518084528060208401602086015e5f602082860101526020601f19601f83011685010191505092915050565b5f815160808452610b766080850182610b34565b905060208301518482036020860152610b8f8282610b34565b91505060408301518482036040860152610ba98282610b34565b91505060608301518482036060860152610bc38282610b34565b95945050505050565b5f8151808452602084019350602083015f5b82811015610bfc578151865260209586019590910190600101610bde565b5093949350505050565b60048110610b1057610b10610aec565b60088110610b1057610b10610aec565b5f815160608452610c3a6060850182610b34565b905060208301518482036020860152610c538282610b34565b91505060408301518482036040860152610bc38282610b34565b5f81518051845260208101516020850152604081015160408501526060810151610ca260608601826001600160401b03169052565b506080810151610cbd60808601826001600160401b03169052565b5060a0810151610cd860a08601826001600160401b03169052565b5060c0810151610cf360c08601826001600160401b03169052565b5060e0810151610d0660e0860182610c06565b50610100810151610d1b610100860182610b14565b50610120810151610d30610120860182610c16565b50610140810151610d4661014086018215159052565b50610160810151610d5c61016086018215159052565b50610180810151610d7261018086018215159052565b506101a08101519050610d8a6101a085018215159052565b5060208201516101e06101c0850152610da76101e0850182610c26565b949350505050565b5f82825180855260208501945060208160051b830101602085015f5b83811015610dfd57601f19858403018852610de7838351610c6d565b6020988901989093509190910190600101610dcb565b50909695505050505050565b5f8151805184526020810151610e2a60208601826001600160a01b03169052565b506040810151610e4560408601826001600160a01b03169052565b506060810151610e6060608601826001600160a01b03169052565b506080810151608085015260a081015160a085015260c081015160c085015260e081015160e0850152610100810151610ea56101008601826001600160401b03169052565b50610120810151610ec26101208601826001600160401b03169052565b50610140810151610edf6101408601826001600160401b03169052565b50610160810151610efc6101608601826001600160401b03169052565b50610180810151610f11610180860182610b00565b506101a0810151610f266101a0860182610b14565b506101c0810151610f3b6101c0860182610b14565b506101e0810151610f586101e08601826001600160a01b03169052565b50610200810151610f7061020086018261ffff169052565b50610220810151610f85610220860182610b24565b506102408101516102408501525060208201516102c0610260850152610faf6102c0850182610b62565b90506040830151848203610280860152610fc98282610bcc565b91505060608301518482036102a0860152610bc38282610daf565b5f602082016020835280845180835260408501915060408160051b8601019250602086015f5b8281101561103b57603f19878603018452611026858351610e09565b9450602093840193919091019060010161100a565b50929695505050505050565b5f60208284031215611057575f5ffd5b5035919050565b602081525f610ae56020830184610c6d565b602081525f610ae56020830184610e09565b634e487b7160e01b5f52604160045260245ffd5b60405161026081016001600160401b03811182821017156110b9576110b9611082565b60405290565b604051608081016001600160401b03811182821017156110b9576110b9611082565b6040516101c081016001600160401b03811182821017156110b9576110b9611082565b604051606081016001600160401b03811182821017156110b9576110b9611082565b604051601f8201601f191681016001600160401b038111828210171561114e5761114e611082565b604052919050565b5f60208284031215611166575f5ffd5b81516001600160401b0381111561117b575f5ffd5b8201601f8101841361118b575f5ffd5b80516001600160401b038111156111a4576111a4611082565b8060051b6111b460208201611126565b918252602081840181019290810190878411156111cf575f5ffd5b6020850194505b838510156111f5578451808352602095860195909350909101906111d6565b979650505050505050565b634e487b7160e01b5f52603260045260245ffd5b805161121f81610ab3565b919050565b80516001600160401b038116811461121f575f5ffd5b80516002811061121f575f5ffd5b80516003811061121f575f5ffd5b805161ffff8116811461121f575f5ffd5b80516007811061121f575f5ffd5b5f610260828403128015611287575f5ffd5b50611290611096565b825181526112a060208401611214565b60208201526112b160408401611214565b60408201526112c260608401611214565b60608201526080838101519082015260a0808401519082015260c0808401519082015260e080840151908201526112fc6101008401611224565b61010082015261130f6101208401611224565b6101208201526113226101408401611224565b6101408201526113356101608401611224565b610160820152611348610180840161123a565b61018082015261135b6101a08401611248565b6101a082015261136e6101c08401611248565b6101c08201526113816101e08401611214565b6101e08201526113946102008401611256565b6102008201526113a76102208401611267565b610220820152610240928301519281019290925250919050565b5f82601f8301126113d0575f5ffd5b81516001600160401b038111156113e9576113e9611082565b6113fc601f8201601f1916602001611126565b818152846020838601011115611410575f5ffd5b8160208501602083015e5f918101602001919091529392505050565b5f6020828403121561143c575f5ffd5b81516001600160401b03811115611451575f5ffd5b820160808185031215611462575f5ffd5b61146a6110bf565b81516001600160401b0381111561147f575f5ffd5b61148b868285016113c1565b82525060208201516001600160401b038111156114a6575f5ffd5b6114b2868285016113c1565b60208301525060408201516001600160401b038111156114d0575f5ffd5b6114dc868285016113c1565b60408301525060608201516001600160401b038111156114fa575f5ffd5b611506868285016113c1565b606083015250949350505050565b80516004811061121f575f5ffd5b80516008811061121f575f5ffd5b8051801515811461121f575f5ffd5b5f6101c0828403128015611551575f5ffd5b5061155a6110e1565b82518152602080840151908201526040808401519082015261157e60608401611224565b606082015261158f60808401611224565b60808201526115a060a08401611224565b60a08201526115b160c08401611224565b60c08201526115c260e08401611514565b60e08201526115d46101008401611248565b6101008201526115e76101208401611522565b6101208201526115fa6101408401611530565b61014082015261160d6101608401611530565b6101608201526116206101808401611530565b6101808201526116336101a08401611530565b6101a08201529392505050565b5f60208284031215611650575f5ffd5b81516001600160401b03811115611665575f5ffd5b820160608185031215611676575f5ffd5b61167e611104565b81516001600160401b03811115611693575f5ffd5b61169f868285016113c1565b82525060208201516001600160401b038111156116ba575f5ffd5b6116c6868285016113c1565b60208301525060408201516001600160401b038111156116e4575f5ffd5b6116f0868285016113c1565b60408301525094935050505056fea2646970667358221220e0857bd3985295c89f3f2836c05f5ff6ee0c2c58878a5c7a110bba0d425b916b64736f6c634300081c0033",
  "linkReferences": {},
  "deployedLinkReferences": {},
  "immutableReferences": {
    "6": [
      {
        "length": 32,
        "start": 188
      },
      {
        "length": 32,
        "start": 282
      },
      {
        "length": 32,
        "start": 518
      },
      {
        "length": 32,
        "start": 710
      },
      {
        "length": 32,
        "start": 879
      },
      {
        "length": 32,
        "start": 1144
      },
      {
        "length": 32,
        "start": 1282
      },
      {
        "length": 32,
        "start": 1436
      },
      {
        "length": 32,
        "start": 1574
      },
      {
        "length": 32,
        "start": 1716
      },
      {
        "length": 32,
        "start": 1986
      },
      {
        "length": 32,
        "start": 2178
      }
    ]
  },
  "inputSourceName": "project/contracts/EscrowReader.sol",
  "buildInfoId": "solc-0_8_28-f96ca28ac314674b1fdec4fec76e2b337d65948c"
}